:020000040800F2
:10000000000002206D09000869090008253F00086A
:100010006909000869090008690900080000000072
:100020000000000000000000000000006909000856
:10003000690900080000000069090008153F000870
:1000400069090008690900086909000869090008C8
:1000500069090008690900086909000869090008B8
:100060006909000869090008690900088D2C000861
:10007000992C000869090008A52C0008B12C00087B
:10008000493C0008B1A50008690900086909000891
:100090006909000869090008690900086909000878
:1000A0006909000869090008690900086909000868
:1000B000690900086909000869090008E5A5000840
:1000C00069090008F1A50008690900086909000824
:1000D0006909000839360008E13600088D37000844
:1000E00069090008690900080000000069090008A2
:1000F0006909000869090008690900086909000818
:100100006909000869090008690900086909000807
:1001100039380008E538000869090008690900084D
:1001200069090008690900086909000869090008E7
:1001300069090008690900086909000869090008D7
:1001400000000000000000000000000000000000AF
:10015000690900086909000869090008913900085F
:10016000FDA5000869090008690900086909000877
:100170006909000869090008690900086909000897
:1001800069090008690900083D3A0008E93A0008D1
:100190006909000869090008690900086909000877
:1001A0006909000869090008690900086909000867
:1001B000D5290008690900086909000869090008CB
:1001C0006909000869090008690900086909000847
:1001D0006909000869090008690900086909000837
:1001E0006909000869090008690900086909000827
:1001F0006909000869090008690900086909000817
:100200006909000869090008690900086909000806
:1002100069090008690900086909000869090008F6
:100220006909000869090008690900080000000060
:100230006909000869090008000000006909000850
:1002400069090008690900086909000869090008C6
:1002500069090008690900086909000869090008B6
:1002600069090008690900086909000869090008A6
:100270006909000869090008953B000800000000B2
:100280006909000869090008690900080000000000
:080290000000000069090008EC
:1002980010B5054C237833B9044B13B10448AFF3B8
:1002A80000800123237010BDC0010024000000005D
:1002B80030C3000808B5034B1BB103490348AFF32B
:1002C800008008BD00000000C401002430C30008FD
:1002D80010F8012B11F8013B012A28BF9A42F7D0E8
:1002E800D01A704781F0004102E000BF83F000435C
:1002F80030B54FEA41044FEA430594EA050F08BFB9
:1003080090EA020F1FBF54EA000C55EA020C7FEA7C
:10031800645C7FEA655C00F0E2804FEA5454D4EBF9
:100328005555B8BF6D420CDD2C4480EA020281EAC3
:10033800030382EA000083EA010180EA020281EAFB
:100348000303362D88BF30BD11F0004F4FEA01314D
:100358004FF4801C4CEA113102D0404261EB41015C
:1003680013F0004F4FEA03334CEA133302D05242E2
:1003780063EB430394EA050F00F0A780A4F101049E
:10038800D5F1200E0DDB02FA0EFC22FA05F28018D8
:1003980041F1000103FA0EF2801843FA05F35941BE
:1003A8000EE0A5F120050EF1200E012A03FA0EFC3D
:1003B80028BF4CF0020C43FA05F3C01851EBE37167
:1003C80001F0004507D54FF0000EDCF1000C7EEB84
:1003D80000006EEB0101B1F5801F1BD3B1F5001FC2
:1003E8000CD349085FEA30004FEA3C0C04F10104E1
:1003F8004FEA445212F5800F80F09A80BCF1004F0A
:1004080008BF5FEA500C50F1000041EB045141EA8B
:10041800050130BD5FEA4C0C404141EB0101013C54
:1004280028BFB1F5801FE9D291F0000F04BF014643
:100438000020B1FA81F308BF2033A3F10B03B3F115
:1004480020020CDA0C3208DD02F1140CC2F10C02A5
:1004580001FA0CF021FA02F10CE002F11402D8BF03
:10046800C2F1200C01FA02F120FA0CFCDCBF41EACF
:100478000C019040E41AA2BF01EB0451294330BD9E
:100488006FEA04041F3C1CDA0C340EDC04F114047B
:10049800C4F1200220FA04F001FA02F340EA030052
:1004A80021FA04F345EA030130BDC4F10C04C4F198
:1004B800200220FA02F001FA04F340EA0300294678
:1004C80030BD21FA04F0294630BD94F0000F83F4C2
:1004D800801306BF81F480110134013D4EE77FEAA5
:1004E800645C18BF7FEA655C29D094EA050F08BFF1
:1004F80090EA020F05D054EA000C04BF19461046D2
:1005080030BD91EA030F1EBF0021002030BD5FEA15
:10051800545C05D14000494128BF41F0004130BD3D
:1005280014F580043CBF01F5801130BD01F0004591
:1005380045F0FE4141F470014FF0000030BD7FEA04
:10054800645C1ABF194610467FEA655C1CBF0B46FF
:10055800024650EA013406BF52EA033591EA030F16
:1005680041F4002130BD00BF90F0000F04BF00210E
:10057800704730B54FF4806404F132044FF0000541
:100588004FF0000150E700BF90F0000F04BF0021BA
:10059800704730B54FF4806404F1320410F0004520
:1005A80048BF40424FF000013EE700BF42004FEA1B
:1005B800E2014FEA31014FEA02701FBF12F07F4398
:1005C80093F07F4F81F06051704732F07F4208BF4F
:1005D800704793F07F4F04BF41F40021704730B556
:1005E8004FF4607401F0004521F000411CE700BFA2
:1005F80050EA010208BF704730B54FF000050AE025
:1006080050EA010208BF704730B511F0004502D525
:10061800404261EB41014FF4806404F132045FEA27
:10062800915C3FF4D8AE4FF003025FEADC0C18BFD0
:1006380003325FEADC0C18BF033202EBDC02C2F1C2
:10064800200300FA03FC20FA02F001FA03FE40EA54
:100658000E0021FA02F11444BDE600BF53B94AB9AD
:10066800002908BF00281CBF4FF0FF314FF0FF30B2
:1006780000F074B9ADF1080C6DE904CE00F006F88D
:10068800DDF804E0DDE9022304B070472DE9F04706
:10069800089D04468E46002B4DD18A42944669D95E
:1006A800B2FA82F252B101FA02F3C2F1200120FA41
:1006B80001F10CFA02FC41EA030E94404FEA1C488F
:1006C800210CBEFBF8F61FFA8CF708FB16E341EA8B
:1006D800034306FB07F199420AD91CEB030306F111
:1006E800FF3080F01F81994240F21C81023E634432
:1006F8005B1AA4B2B3FBF8F008FB103344EA0344D6
:1007080000FB07F7A7420AD91CEB040400F1FF33EA
:1007180080F00A81A74240F207816444023840EA27
:100728000640E41B00261DB1D4400023C5E9004360
:100738003146BDE8F0878B4209D9002D00F0EF80E3
:100748000026C5E9000130463146BDE8F087B3FA16
:1007580083F6002E4AD18B4202D3824200F2F980FE
:10076800841A61EB030301209E46002DE0D0C5E901
:10077800004EDDE702B9FFDEB2FA82F2002A40F04D
:100788009280A1EB0C014FEA1C471FFA8CFE012650
:10079800200CB1FBF7F307FB131140EA01410EFBF4
:1007A80003F0884208D91CEB010103F1FF3802D29B
:1007B800884200F2CB804346091AA4B2B1FBF7F095
:1007C80007FB101144EA01440EFB00FEA64508D9B8
:1007D8001CEB040400F1FF3102D2A64500F2BB80F5
:1007E8000846A4EB0E0440EA03409CE7C6F1200744
:1007F800B34022FA07FC4CEA030C20FA07F401FA8A
:1008080006F31C43F9404FEA1C4900FA06F3B1FB12
:10081800F9F8200C1FFA8CFE09FB181140EA014177
:1008280008FB0EF0884202FA06F20BD91CEB010114
:1008380008F1FF3A80F08880884240F28580A8F16C
:1008480002086144091AA4B2B1FBF9F009FB1011BE
:1008580044EA014100FB0EFE8E4508D91CEB01015C
:1008680000F1FF346CD28E456AD90238614440EAFF
:100878000840A0FB0294A1EB0E01A142C846A6467F
:1008880056D353D05DB1B3EB080261EB0E0101FA08
:1008980007F722FA06F3F1401F43C5E90071002665
:1008A8003146BDE8F087C2F12003D8400CFA02FCBB
:1008B80021FA03F3914001434FEA1C471FFA8CFECB
:1008C800B3FBF7F007FB10360B0C43EA064300FBBB
:1008D8000EF69E4204FA02F408D91CEB030300F159
:1008E800FF382FD29E422DD9023863449B1B89B210
:1008F800B3FBF7F607FB163341EA034106FB0EF399
:100908008B4208D91CEB010106F1FF3816D28B4245
:1009180014D9023E6144C91A46EA004638E72E4611
:10092800284605E70646E3E61846F8E64B45A9D209
:10093800B9EB020864EB0C0E0138A3E74646EAE778
:10094800204694E74046D1E7D0467BE7023B614426
:1009580032E7304609E76444023842E7704700BF8F
:10096800FEE700BF0B480C4A904203D0121A0B490D
:100978000BF066F80A480B4A904203D0121A00217D
:100988000BF06CF803F036FC0BF026F800F01EFBB9
:10099800FEE700BF00000024BC01002454C3000887
:1009A800C001002458B10024704700BF0123002271
:1009B80080ED020A826180F8443080F83430704754
:1009C8000022012380ED020A826180F834307047EA
:1009D800A2B3013A2DE9F843DFF86C900E460027E0
:1009E8004FEA5208D9F80030002B2DED028B1EDD9E
:1009F800134D00249FED138A55F8040B0134036846
:100A08005B689847D9F8003038EE008AA342F3DCD7
:100A1800474586ED008A86ED018A07F1010306F154
:100A2800080607D01F46D9F80030002BE0DC9FED00
:100A3800058AEDE7BDEC028BBDE8F883704700BF7F
:100A4800DC0100240000000004000024704700BFFF
:100A580010B5044604300AF0E1F894F834307BB15C
:100A6800F7EE007A002384F8343094ED0E7A77EEAE
:100A7800C77A27EEA77AC4ED0C7A20EE070A10BDD4
:100A8800D4ED0C7AF5EEC07AF1EE10FAEDDC9FEDBC
:100A9800027A20EE070A10BD0000000090F83430FA
:100AA800D0ED137A30B5044683B0002B46D0B7EEAC
:100AB800007A002380F8343094ED0E6AF3EE086A69
:100AC80037EE467A67EE070A84ED0C7A60EEA60ADE
:100AD80077EEA07A9FED257AF2EE080A251DB0EE92
:100AE800000AFDEEE77AF8EEE77A77EEC77AC7EE06
:100AF800A00A0AF0B1FBDFED1E7A2846019520EE28
:100B0800270A84ED030A0AF06BFA019884ED070AB4
:100B18000AF084F894F84430D3B1F7EE007A002351
:100B280084F8443094ED127A77EEC77A27EEA77AE4
:100B3800C4ED107A20EE070A03B030BD90ED0C7AB0
:100B4800B5EEC07AF1EE10FAB6DCDFED0A0ABFE7BF
:100B5800D4ED107AF5EEC07AF1EE10FAE2DC9FEDF2
:100B6800057A20EE070A03B030BD00BF00008A42B4
:100B78000000DC430000000010B52DED028BB0EE44
:100B8800408A0446F7EE008A4FF07C5200239FED1E
:100B9800170A84ED048A0430C8EE887AA260A3613B
:100BA80084ED030AC4ED057A0AF01AFA9FED107A6B
:100BB800DFED107A002228EE077A40F2011368EE82
:100BC800277A2271C4ED028AC8EE876A84ED0B8AFF
:100BD80084ED0F8A84ED070A238588EEA77ABDEC99
:100BE800028BC4ED0E6A84ED127A10BD0000C84273
:100BF8000AD7A33CCDCC4C3E10B52DED028BB0EE00
:100C0800408A0446F7EE008A4FF07C5200239FED9D
:100C1800190A82B00430C8EE887A84ED048AA2608A
:100C2800A36184ED030A0190C4ED057A0AF0D8F9AE
:100C3800F0EE407A002294ED0F0A40F20113019879
:100C4800C4ED077A22712385C4ED028A84ED030A74
:100C58000AF0C6F9DFED087A84ED0B8A28EE278AB8
:100C680084ED070AC8EE887AC4ED0E7A02B0BDECAE
:100C7800028B10BD0000C842CDCC4C3D84B08DE83D
:100C88000F009DF80030012B01D004B070479DF88B
:100C98000930002BF9D09DF80820232AF5DD0B49EF
:100CA800096823319142F0DB07EE903A9FED087A0C
:100CB800084B243AF8EEE77A04B053F8220087EE9E
:100CC800870A03689B6820EE000A1847040000247E
:100CD8000000FE42DC01002470B5124E88B00024EA
:100CE800012306F51045104A069301A905F1B00045
:100CF8000494CDE90243C5E92A4247F6122302F5D6
:100D08007F02079302F57F4202230192059302F0C6
:100D18009DFF0A23C5F89C403471C5F8984033728A
:100D280008B070BD2C0200240107010603792DE9E3
:100D3800F0410446C8B0032B0CD8DFE803F06A1D65
:100D4800020E00F5104595F8B4300B4000F0958080
:100D58000023237148B0BDE8F081F72900F0BF8077
:100D680090F9922090F89230002AF3DBC2180133F0
:100D7800917480F89230EDE700F5104595F8B4309D
:100D88001942E5D195F8B68001EA080880F8108084
:100D980095F8A4703B1F012B06D990F8933003F007
:100DA800FD03012B40F0C58000236E46902204F11C
:100DB8000801304623710AF043FED5F89830D5F87B
:100DC8009C20013B9B1ADBB2002BF6D090223146C7
:100DD8000DEB02000AF034FED5F89C6024A990229D
:100DE80006EBC600013604EB0010F6B298300AF0A4
:100DF80027FEC5F89C60B8F1770FABD9032FA9D1AE
:100E08000923A8F17801237285F8A43084F8951095
:100E1800A0E700F5104595F8B430194221D095F8AF
:100E2800B8300B40C36095F8B5300B401B09092B4F
:100E380003728FD80122072B027185F8A43089D15B
:100E48000023C36011F0080040F0A48001F00703FC
:100E580084F89330002B73D1032284F892302271E6
:100E680078E795F8A4300222037295F8B63002713B
:100E78001940017448B0BDE8F08195F8B6201140DA
:100E8800417495F8A420012A01D1002954D06E4656
:100E9800902204F1080130460AF0D2FDD5F89830C6
:100EA800D5F89C20013B9B1ADBB2002BF6D0902290
:100EB80031460DEB02000AF0C3FDD5F89C6024A969
:100EC800902206EBC600013604EB0010F6B298300B
:100ED8000AF0B6FD0023C5F89C6023713AE70023A9
:100EE8006E4600F1080100F5104503719022304666
:100EF8000AF0A6FDD5F89830D5F89C20013B9B1A3E
:100F0800DBB2002BF6D0902231460DEB02000AF03E
:100F180097FDD5F89C6024A9902206EBC6000136FF
:100F280004EB0010F6B298300AF08AFDC5F89C6010
:100F380010E7022303715EE785F8A4300372A6E781
:100F48004B077FF507AF6E462071902204F1080128
:100F580030460AF075FDD5F89830D5F89C20013B4D
:100F68009B1ADBB2002BF6D0902231460DEB020023
:100F78000AF066FDD5F89C6024A9902206EBC6000D
:100F880004EB001098300AF05BFD731CDBB2C5F867
:100F98009C30DFE608226E462272304685F8A4208F
:100FA80095F8BA2023711140902284F8941004F126
:100FB80008010AF045FDD5F89830D5F89C20013B8A
:100FC8009B1ADBB2002BF6D0CEE700BFF0B539484C
:100FD800394E2DED028BC5B000F028F900213548B7
:100FE80000F08EF9FFF778FE324800F049F93368CF
:100FF800002B0EDDB0EE408A304D002455F8040B6E
:10100800B0EE480A013403681B6898473368A34266
:10101800F4DC2B4C20AE2B49A4F51047254800F0F2
:101028002BF902F07DFF054607E0C4F8A05002F056
:10103800AFFE01462448FFF779FE244802F0BCFEC3
:1010480003462248002BF0D1204802F095FE0346C3
:1010580040B3D4F89C30D4F898209B1ADBB2002B0C
:10106800DFD0D4F89C30D4F898209B1ADBB2002B40
:10107800F7D0D4F898509022304605EBC5010135D9
:1010880007EB0111EDB298310AF0DAFC24A98022AD
:101098006846C4F898500AF0D3FC96E80F00FFF7AA
:1010A800EDFDD6E709483B7102F06AFE074802F0F9
:1010B8004FFECEE7F001002404000024DC010024E8
:1010C8002C920024D90900082C020024DC92002468
:1010D8002DE9F84344480024444A00274449446120
:1010E800046209F089FF50200AF000F8DFF8309117
:1010F800404E414DDFF82C81404BC0F82C90C0F891
:101108000080076380F83440C0F83C90076480F89A
:101118004440866386642860C364502009F0E6FF73
:10112800374BC0F80080C0F82C90076380F8344033
:101138008663C0F83C90076480F844408664686021
:10114800C364502009F0D2FF2E4BC0F80080C0F8CD
:101158002C90076380F834408663C0F83C9007649D
:1011680080F844408664A860C364402009F0BEFF4C
:10117800DFF8B480244BC0F82C90076380F8344023
:101188008663E860C0F80080C363402009F0AEFFC2
:101198001E491F4BC0F80080C0F82C90076380F8E8
:1011A800344086632861C36301F51043194D08462E
:1011B8000C601949C3F8A840C3F8B040C3F8B4108C
:1011C8004FF60F012C88A3F8B8100721A3F8AC40FC
:1011D800AC8883F8BA10A3F8AE40044A0F49BDE8BA
:1011E800F84309F009BF00BFF00100240000002403
:1011F800B10900086F12833ADC0100240000304274
:10120800000040420000504212D082432C020024C9
:1012180049FFB844C4BC000880707FF0550A000834
:1012280000442C4740BD000854BD00080F4A012364
:101238000F494FF0060C80F82730816040F20271A8
:1012480080F810C0A0F8251080F82B3010B4094C95
:10125800C0E9004202F181725DF8044B0532C260B8
:1012680040F60662A0F82920704700BF010508056E
:101278000905070500070500143001F025B800BF6F
:10128800143001F01DB800BF30B5032491B001251A
:10129800194900234FF44172089106A9ADF824209A
:1012A80002939FED137BCDE90A45144D044602A82D
:1012B8008DED0C7B8DED0E7BCDE9063501F070FDD3
:1012C80040F601333025ADF80430019800F056F8A7
:1012D80003214FF07E53029A04F114000593CDE9DF
:1012E800035103A900F0B6FF11B030BDAFF3008081
:1012F80000000000010000000405040604020404C4
:1013080030B504462DED028B83B089B3012240F23B
:1013180001130092ADF80430694604F1300002F080
:10132800CDFE204600F04CF8E01C01F0D9F804F19D
:10133800250000F0E7FF04F1140504F1290000F08E
:10134800E1FF2046FFF7A0FF284600F0B9FF284636
:10135800B0EE408A00F0B0FFD0ED007AF8EE677A80
:1013680088EE277A84ED0E7A03B0BDEC028B30BD8F
:1013780040F201130091ADF80430CDE710B584B008
:1013880003460124ADF8040003A8ADF80C30ADF80D
:101398000E4000F0B7FF214603A801F08FF8204661
:1013A80002F0C0FD002103A801F088F8204602F0F1
:1013B800B9FD214603A801F081F804B010BD00BFB3
:1013C800F0B53F4C8BB0A06303781BB100252846CD
:1013D8000BB0F0BD0022079301233A49201D61603C
:1013E8000321C4E902230822202306910A21C4E923
:1013F800042340224FF4C073089102A9C4E90623CC
:1014080000224FF40063C4E908234FF480520023FC
:10141800C4E90A2302220723CDE902230422082370
:10142800CDE9042307F0E2F90546002844D110234A
:1014380001220126002702A90190201DCDE90223DF
:101448004FF48052CDE9046707F0FAF9642003F0FD
:1014580035F802A94FF48052201DCDE90467022611
:101468001027CDE9026707F0EBF90322102302A940
:10147800201DCDE9022300230422CDE904234FF4E3
:10148800805207F0DDF940F23223042202A90193C9
:101498001023201DCDE90223019A012305924FF460
:1014A8008052049307F0CCF940F60601201D07F09E
:1014B800E7F928460BB0F0BD012528460BB0F0BD72
:1014C800F0920024404100526A4A00232DE9F0437B
:1014D80015688FB00A9315B10FB0BDE8F083664B5D
:1014E80001210C244FF0030811600026D3F8D42002
:1014F8000327624842F48052DFF89891C3F8D42059
:10150800D3F8D42002F480520092009AD3F8E02055
:1015180042F01002C3F8E020D3F8E02002F01002F5
:101528000192019AD3F8E02042F04002C3F8E0208B
:10153800D3F8E02002F040020292029AD3F8E020A9
:1015480042F00802C3F8E020D3F8E02002F00802D5
:101558000392039AD3F8E02042F48072C3F8E020A3
:10156800D3F8E02002F480720492049AD3F8E020C1
:1015780042F08002C3F8E020D3F8E02002F08002B5
:101588000592059AD3F8E02042F02002C3F8E02043
:10159800D3F8E02002F020020692069AD3F8E02061
:1015A80042F00402C3F8E0204FF68372D3F8E0302B
:1015B8000C9403F00403CDF82C80079302230799B9
:1015C80008A9CDE9082304F01FF848F237120223CE
:1015D80008A92B480C94CDE90823CDE90A6704F043
:1015E80013F84CF20372022308A926480C94CDE99B
:1015F8000823CDE90A6704F007F840F2FF620223E6
:1016080008A921480C94CDE90823CDE90A6703F01D
:10161800FBFF4FF60C72022308A91C480C94CDE975
:101628000823CDE90A6703F0EFFF4FF63F020223D4
:1016380008A917480C94CDE90823CDE90A6703F0F7
:10164800E3FFD9F83800013002F016FED9F8383037
:101658000646581C02F018FE0223089008A93046D6
:101668000A950993CDE90B8403F0CEFF0FB0BDE8CE
:10167800F08300BFE892002400440258001002588A
:1016880000180258000C025800200258001C02588A
:1016980000140258F09200242DE9F04FDFF810846E
:1016A80006460D46144608F114002DED028B89B04C
:1016B80000AF01F06DFCD8F8143073B3D8F81830C7
:1016C800D8F80490002B43690BBF4FF0080A4FF07D
:1016D800100A4FF0020B4FF0040BB9F1000F2AD09B
:1016E800A200EA46012B02F1070222F00702ADEB45
:1016F800020D6846ADEB020D694600F03F81022BF2
:1017080000F0D680002B6FD02246C847D546243734
:10171800BD46BDEC028BBDE8F08FD8F81830002B21
:10172800F5D0D8F804904FF0080A4FF0020B43693F
:10173800B9F1000FD4D1FB61D8F80030BB61002BA0
:10174800E5D0D54801F06CFC6B46BBF1020F78611F
:1017580008EE103AFB6900F083816A465146A2EB15
:10176800C40295466200EA46B2FBFBF2AAEBC4004B
:1017780085460AEB8200EE46F861ADEB010DF8698B
:101788000EEB820CC7F810C0EC46ADEB010D00EB78
:101798008201CCF80400CCF8081001EB820138690A
:1017A800E946CCF80C1000EB8201CCF800A001EB64
:1017B8008202C9E900E0C9E90212012B00F0648342
:1017C800022B00F06C82002B00F0808162084946F1
:1017D8006046BB69984718EE103A24379D46BD46C7
:1017E800BDEC028BBDE8F08F002C8DD01A46D8EDE9
:1017F8000B6A9FEDB27A8446331D36F922E00CF16C
:10180800080C07EE90EA33F922E00232F8EEE77AA4
:10181800944267EE877A67EEA67A4CED027A07EE75
:1018280090EAF8EEE77A67EE877A67EEA67A4CEDEB
:10183800017AE2D8F9612246C847984ED8ED046A81
:101848000020F9692B1D9FED9E7A9FED9E6ADFEDC2
:101858009E5A22E0F4EEC67AF1EE10FAC0F2C8847D
:1018680047F6FE72D1ED017A45F8202066EEA77A98
:10187800F4EEC77AF1EE10FA40F2F080F4EEC67A90
:10188800F1EE10FAC0F2D58447F6FE7243F8202034
:101898000230083184427FF639AFD1ED007A66EE26
:1018A800A77AF4EEC77AF1EE10FAD3D83246D9E720
:1018B800002C3FF429AFD8ED0B6A84469FED787A67
:1018C8000022331D8E4656F822100CF1080C07EE44
:1018D800901A53F822100232F8EEE77A944267EE33
:1018E800877A67EEA67A4CED027A07EE901AF8EE40
:1018F800E77A67EE877A67EEA67A4CED017AE2D846
:1019080071462246C7F81CE0C847664ED8ED046AFF
:101918000020F9692B1D9FED6A7A9FED6A6ADFF84E
:1019280094C120E0F4EEC67AF1EE10FAC0F27984A0
:101938003246D1ED017A45F8202066EEA77AF4EE1A
:10194800C77AF1EE10FA40F28780F4EEC67AF1EE2B
:1019580010FAC0F25E84324643F820200230083183
:1019680084427FF6D3AED1ED007A66EEA77AF4EE24
:10197800C77AF1EE10FAD5D86246DAE7002C3FF4C0
:10198800C3AED8ED0B6A86469FED477A4FF0000C40
:10199800331D56F82C200EF1080E82F40002A2F531
:1019A800000207EE902A53F82C200CF1020CF8EEF6
:1019B800E77A82F400026445A2F5000267EE877AAE
:1019C80067EEA67A4EED027A07EE902AF8EEE77AED
:1019D80067EE877A67EEA67A4EED017AD9D8F96173
:1019E8002246C847314ED8ED046A0020F9692B1DFC
:1019F8009FED337A9FED336ADFF8BCC01FE0F4EE49
:101A0800C67AF1EE10FAC0F2FC833246D1ED017AC3
:101A180045F8202066EEA77AF4EEC77AF1EE10FAC0
:101A280018D9F4EEC67AF1EE10FAC0F2DA8332462B
:101A380043F820200230083184427FF667AED1EDAA
:101A4800007A66EEA77AF4EEC77AF1EE10FAD6D8E5
:101A58006246DBE76246EBE762467DE7324615E71A
:101A6800A100D6466208073121F00701ADEB010D50
:101A7800EA46ADEB010D6946ADEB0E0D0AEB8200AF
:101A8800EC46ADEB0E0D01EB8202F861E946CCE9BC
:101A980000A0C9E9001290E6449300240280FFFFE9
:101AA800000000300082FF7F0000003482FF7F00CA
:101AB8002C930024007E00807E0080FF0000003808
:101AC80004FF7FBF04FF7F3F00FEFF46002C00F0AD
:101AD800C982BBF1020FD8F8202000F0FA82796998
:101AE800C7F8049002EB810E5FED0C5A8A00DCF80F
:101AF80008100EF104007A611A46DCF80C303B61DC
:101B0800331DD7F810903D61FD69C7E902CB8C46BB
:101B1800834636F92210D8ED0B7A06EE101A33F9FF
:101B2800221006EE901A3EF92210B8EEC66A07EEA9
:101B3800101AF8EEE66A3BF92210B8EEC77A26EEDC
:101B4800256A66EEA56A27EE257A26EE276A66EEEE
:101B5800A76A27EE277A07EE901A51080232F8EEA4
:101B6800E77A0AEB8100944280ED006A05EB810078
:101B780067EEA57AC0ED006A0CEB810009EB8101E4
:101B880080ED007A98ED0B7A67EE877AC1ED007ADE
:101B9800BFD8D7F804903D69D7E902CB6046620800
:101BA800BB6949469847D8F828307A69D8ED046A5D
:101BB8001A441FED3D7A1FED3D6A2B1D904602F138
:101BC800040A5FED3F5A0022A84ED9E900EC51E023
:101BD800F4EEC67AF1EE10FAC0F2C78247F6FE704C
:101BE80045F822000CEB0100D0ED007A66EEA77AEA
:101BF800F4EEC77AF1EE10FA4BD9F4EEC67AF1EEAC
:101C080010FAC0F2BA8247F6FE70BBF1020F43F831
:101C180022002BD0D9F808000844D0ED007A66EEEF
:101C2800A77AF4EEC77AF1EE10FA36D9F4EEC67A4E
:101C3800F1EE10FAC0F2CD8247F6FE7048F82200A5
:101C4800D9F80C000144D1ED007A66EEA77AF4EEDB
:101C5800C77AF1EE10FA1ED9F4EEC67AF1EE10FA50
:101C6800C0F2AF8247F6FE714AF82210023294425F
:101C78007FF6B1AD51080EEB81008900D0ED007AF6
:101C880066EEA77AF4EEC77AF1EE10FAA0D83046DD
:101C9800A6E73046B9E73146E6E73046CEE7002CFE
:101CA80000F0E081BBF1020FD8F8203000F0E181AC
:101CB8007A69DCF8081003EB820EC7F804909300E9
:101CC800DFED6B5A0EF1040000227B61DCF80C306A
:101CD8003B61331DD7F810903D61FD69C7E902CB20
:101CE8008C46834656F82210D8ED0B7A07EE101A68
:101CF80053F82210B8EEC76A07EE101A5EF82210E1
:101D0800F8EEC76A07EE101A26EE256A5BF822106D
:101D1800B8EEC77A66EEA56A26EE276A27EE257A18
:101D280066EEA76A27EE277A07EE901A5108023264
:101D3800F8EEE77A0AEB8100944280ED006A05EB41
:101D4800810067EEA57AC0ED006A0CEB810009EB13
:101D5800810180ED007A98ED0B7A67EE877AC1ED04
:101D6800007ABFD8D7F804903D69D7E902CB60461E
:101D78006208BB6949469847D8F828307A69D8ED8F
:101D8800046A1A449FED3E7A9FED3E6A131D9246FF
:101D9800DFF8E4C00022FB612B1D364ED9E9008E26
:101DA8004EE0F4EEC67AF1EE10FAC0F2FC8130464D
:101DB80045F822000EEB0100D0ED007A66EEA77A16
:101DC800F4EEC77AF1EE10FA49D9F4EEC67AF1EEDC
:101DD80010FAC0F2EF813046BBF1020F43F822003F
:101DE8002AD0D9F808000844D0ED007A66EEA77A20
:101DF800F4EEC77AF1EE10FA35D9F4EEC67AF1EEC0
:101E080010FAC0F2C98130464AF82200D9F80C000D
:101E18000144D1ED007A66EEA77AF4EEC77AF1EEC6
:101E280010FA1ED9F4EEC67AF1EE10FAC0F2AD81BE
:101E38003146F86940F82210023294427FF6CBAC62
:101E4800510808EB81008900D0ED007A66EEA77A88
:101E5800F4EEC77AF1EE10FAA3D86046A8E7604618
:101E6800BAE76146E5E76046CEE700BF0280FFFFBC
:101E7800000000300082FF7F007E008000000034F8
:101E880004FF7FBF04FF7F3F002C00F0EB807A69DE
:101E98000021D8F82030C7F8109003EB820ED7F84D
:101EA8001C909300FD610EF104021FED0C6A7B612A
:101EB800331D154656F821204808D8ED0B6ABBF1AA
:101EC800020F82F40002A2F5000207EE902A53F8EE
:101ED800212082F40002B8EEE77AA2F5000227EE8C
:101EE800067A07EE902A0AEB8002F8EEE77A27EEE8
:101EF800267A67EE867A82ED007A09EB80024FEA4D
:101F0800800067EEA67AC2ED007A27D05EF821201D
:101F180082F40002A2F5000207EE902A55F821206B
:101F280082F40002B8EEE77AA2F5000227EE067AFC
:101F380007EE902ADCF80820F8EEE77A024427EE4C
:101F4800267A67EE867A82ED007A98ED0B7ADCF8CD
:101F58000C2067EE877A0244C2ED007A02318C4287
:101F6800A8D8D7F8109060466208BB694946FD6951
:101F78009847D8F828307A69D8ED046A1A441FEDD2
:101F8800407A1FED406A131D9246DFF8C4C2002252
:101F9800FB612B1DAB4ED9E9008E4EE0F4EEC67AFC
:101FA800F1EE10FAC0F2C580304645F822000EEB7B
:101FB8000100D0ED007A66EEA77AF4EEC77AF1EE6A
:101FC80010FA49D9F4EEC67AF1EE10FAC0F2BF80E1
:101FD8003046BBF1020F43F822002AD0D9F8080096
:101FE8000844D0ED007A66EEA77AF4EEC77AF1EEEF
:101FF80010FA35D9F4EEC67AF1EE10FAC0F2AE80D6
:1020080030464AF82200D9F80C000144D1ED007A94
:1020180066EEA77AF4EEC77AF1EE10FA1ED9F4EE5E
:10202800C67AF1EE10FAC0F28B803146F86940F8B2
:102038002210023294427FF6CEAB510808EB8100A1
:102048008900D0ED007A66EEA77AF4EEC77AF1EE51
:1020580010FAA3D86046A8E76046BAE76146E5E704
:102068006046CEE7224649466046BB699847FFF777
:10207800B2BBC7F810B0002298ED0B6A331DDFED34
:10208800726AD7F81CB0786956F8221007EE901AD1
:1020980053F82210B8EEE77A07EE901A5108023288
:1020A800F8EEE77A27EE267A0AEB810E94420BEBDC
:1020B800810167EEA67A27EE067A67EE867A8EEDBC
:1020C800007AC1ED007ADFD88300D7F810B07B61C1
:1020D8004DE61A46C7F810B098ED0B6A331DDFEDD0
:1020E8005B6AD7F81CB0786936F9221007EE101A27
:1020F80033F9221007EE901AB8EEC77A5108023267
:10210800F8EEE77A27EE267A0AEB810E94420BEB7B
:10211800810167EEA67A27EE067A67EE867A8EED5B
:10212800007AC1ED007ADFD88300D7F810B07B6160
:1021380034E5F0EE675AFEEEE45A15EE900A34E7FD
:10214800F0EE675AFEEEE45A15EE901A6EE7F0EEDE
:10215800675AFEEEE45A15EE900A3AE7F0EE675A2F
:10216800FEEEE45A15EE900A4BE767EEA57AFDEE0F
:10217800E77A17EE900A00B232E567EEA57AFDEE2F
:10218800E77A17EE900A00B23FE5F0EE675AFEEEE6
:10219800E05A15EE901A4CE6F0EE675AFEEEE05A59
:1021A80015EE900A30E6F0EE675AFEEEE05A15EEAC
:1021B800900AFDE5F0EE675AFEEEE05A15EE900A39
:1021C8000AE667EEA57AFDEEE77A17EE901A09B2ED
:1021D8004AE567EEA57AFDEEE77A17EE900A00B2B7
:1021E8002CE5F0EE675AFEEEE45A15EE902A1FE44D
:1021F80067EEA57AFDEEE77A17EE902A12B2FFF79E
:1022080031BBF0EE675AFEEEE45A15EE902AFFF75E
:10221800FDBBF0EE675AFEEEE05A15EE902AFFF786
:102228009BBBF0EE675AFEEEE05A15EE902AFFF7D8
:1022380080BB67EEA57AFDEEE77A17EE902A12B218
:10224800FFF724BB82FF7F00000000300000003849
:102258007E0080FF30B5154C154685B0046004F14A
:10226800080C01AB07C98CE80700D4ED047AF5EE39
:10227800C07A83E80700F1EE10FA14DDF7EE006A81
:1022880086EEA77A84ED0B7A6DB1204640F8145F8C
:1022980000F07EFE064903690020064AE161626299
:1022A800E36005B030BD012005B030BD2C9300249B
:1022B800002000300000003000680830704700BF80
:1022C8000068143000F09ABE30B5046883B008483E
:1022D8000D46A368626AE1699B00009004F114004E
:1022E80000F058FE0020C4E9000503B030BD00BF6F
:1022F800A1160008024B0022C3E90522704700BF5F
:102308002C93002430B583788FB00446022B37D045
:10231800032B33D0012B31D000230A93E378012B10
:102328002AD0022B28D000230B93002320460C939D
:1023380001F0A2FF0546204601F0A6FF2378099088
:10234800082B13D8DFE803F01F3245586B7E91A4A1
:102358000500594BD3F8E02042F48072C3F8E0201E
:10236800D3F8E03003F480730893089B09A9284642
:1023780003F04AF90FB030BD0B93D6E70A93CDE7C7
:1023880011230A93CAE74C4B09A92846D3F8E02041
:1023980042F00102C3F8E020D3F8E03003F0010373
:1023A8000093009B03F030F90FB030BD424B09A9F0
:1023B8002846D3F8E02042F00202C3F8E020D3F820
:1023C800E03003F002030193019B03F01DF90FB005
:1023D80030BD394B09A92846D3F8E02042F0040261
:1023E800C3F8E020D3F8E03003F004030293029B23
:1023F80003F00AF90FB030BD2F4B09A92846D3F8CE
:10240800E02042F00802C3F8E020D3F8E03003F0FF
:1024180008030393039B03F0F7F80FB030BD264B76
:1024280009A92846D3F8E02042F01002C3F8E020BA
:10243800D3F8E03003F010030493049B03F0E4F8AE
:102448000FB030BD1C4B09A92846D3F8E02042F054
:102458002002C3F8E020D3F8E03003F0200305930E
:10246800059B03F0D1F80FB030BD134B09A92846DE
:10247800D3F8E02042F04002C3F8E020D3F8E0307F
:1024880003F040030693069B03F0BEF80FB030BD7F
:10249800094B09A92846D3F8E02042F08002C3F886
:1024A800E020D3F8E03003F080030793079B03F0A4
:1024B800ABF80FB030BD00BF0044025870B50646F7
:1024C8000D4601F0D9FE0446304601F0DDFE2A1E15
:1024D8000146204618BF0122BDE8704003F09CBAAF
:1024E8002DE9F04FC84C03462DED048B2046ABB0C8
:1024F80023655D781E7803F0E7FBE0B9012D4FF006
:102508000107C24A14BF4FF480134FF40003E06080
:102518002260C4E9017793FAA3F3B3FA83F34FF483
:102528008078013BC4F81480C4E907002046236181
:1025380003F05EFB28B101202BB0BDEC048BBDE895
:10254800F08F662313901B9041F288320EA90E93E8
:10255800CDE91480CDE91600CDE91900204603F035
:10256800D1FB0028E7D1992341F288320EA92046F1
:102578000E9303F0C7FB0028DDD14FF0050A4FF09A
:102588008079249041F28833219008AA29901CA9C7
:10259800CDF870A0CDF894909FED917B9FED929B24
:1025A8009FED938BCDE92280CDE9270020468DED64
:1025B800087B8DED0A9B8DED0C8B03F00FFD002839
:1025C800B9D11897ADF8080013901B90CDE9148085
:1025D800CDE91609CDE91900002D00F0BA80F023E5
:1025E800ADF80830C02341F288320EA986480E9310
:1025F80003F088FB00289ED141F28832824802A964
:1026080003F0EAFB002896D14FF480744FF00508D8
:102618004FF080754FF0000A4FF0010B2190299080
:1026280041F2883308AA1CA92294CDF87080259518
:102638009FED6D9B9FED6E8BCDE92300CDE92700C3
:102648007148CDE908AB8DED0A9B8DED0C8B03F03D
:10265800C5FC00287FF46FAF012706238DF807001B
:1026680041F2883213901CA91B90219029900E9753
:102678001C93CDE91440CDE91605CDE91900CDE943
:102688002240CDE92400CDE927005F4803F03AFB5A
:1026980000287FF450AF41F2883308AA1CA95A4891
:1026A800CDF8708025959FED547B8DED0A9B8DEDBF
:1026B8000C8B8DED087B03F091FC00287FF43BAF79
:1026C80041F288320EA9504803F01CFB00287FF421
:1026D80032AF402341F288320DF107014A488DF8A4
:1026E800073003F079FB00287FF425AF02AA41F2F6
:1026F80088330EA94448CDF8388017959FED407B64
:102708008DED049B8DED068B8DED027B03F066FC51
:1027180000287FF410AF219008AA299041F288334D
:102728001CA92294CDF870802595CDE92300CDE928
:1027380027003548CDE908AB8DED0A9B8DED0C8B54
:1027480003F04CFC00287FF4F6AE002E60D0002089
:10275800F2E6612341F288320EA920460E9303F077
:10276800D1FA00287FF4E7AE41F2883202A9204668
:1027780003F0B0FB00287FF4DEAEBDF8083041F26C
:10278800883221901CA923F07803299043F0400354
:10279800ADF808300623CDE92280CDE92400CDE943
:1027A800270020461C9303F0ADFA00287FF4C3AE3F
:1027B80020460225022441F2883308AA1CA9CDF834
:1027C80070A0CDF894908DED0A9B8DED0C8BCDE922
:1027D800084503F003FC00283FF404AFABE600BF54
:1027E80000000000010000001000000001000000CF
:1027F800000000000000400002000000020000008D
:1028080040000000400000005C930024005000528B
:10281800EB204FF48074002300251C904FF40050E7
:1028280022944FF440641F90A02020930EAA239472
:102838004FF4404427931CA928934FF080531E90CF
:1028480006202494002429934FF0407321900548D2
:102858002593CDE90E4503F039FC003818BF012057
:102868006AE600BF5C9300243E4B02682DE9F047FE
:102878009A428CB04FF00005CDE90755CDE90955CE
:102888000B9502D00CB0BDE8F087374B02263749CC
:1028980005AFD3F8D420B146DFF8D4A04FF0030831
:1028A80042F48042C3F8D420D3F8D42002F4804202
:1028B8000092009AD3F8E02042F04002C3F8E020EA
:1028C800D3F8E02002F040020192019AD3F8E02008
:1028D80042F02002C3F8E020D3F8E02002F0200202
:1028E8000292029AD3F8E02042F01002C3F8E020E6
:1028F800D3F8E02002F010020392039AD3F8E02004
:1029080042F00202C3F8E020D3F8E03003F00203FB
:102918000493049B03C90590ADF81810DAF85040E9
:1029280034440236204601F0A7FC034620461C46E4
:1029380001F0AAFC17F8013B07A907902046CDE94A
:102948000895CDE90A8302F05FFE0E2EE6D100223B
:102958005C20114601F0DCFD5C2001F017FE0CB094
:10296800BDE8F087005000520044025860BD0008DE
:102978005C930024124B02689A4200D07047114AB7
:10298800D2F8D43070B523F4804302250E4EC2F835
:10299800D430346D2C440235204601F06DFC0346DA
:1029A80020461C4601F070FC0146204602F06CFFF0
:1029B8000E2DEED15C20BDE8704001F0F5BD00BFE2
:1029C80000500052004402585C930024014803F070
:1029D80009BC00BF5C93002438B5036871B9026A6A
:1029E80000F1280500F5AC74012A0CBF0021402134
:1029F8008BBB1D4B5722C0F858310DE0426A00F1DD
:102A0800C00500F5E874012A0CBF00214021EBB194
:102A1800164B5A22C0F8D03100232046C4E90121C0
:102A28004FF480524FF48061636262614FF48042D8
:102A3800C4E903314FF48073C4E906234FF400332B
:102A4800236201F017FF58B1FFBEFEE7084B58227A
:102A5800C0F8D031E0E7074B5922C0F85831DBE71E
:102A6800C5E92044A56338BD10000240700002404B
:102A780028000240580002402DE9F043821D054617
:102A88008BB0031D05F10A010830CDE9052305F1D6
:102A98000C02AB69CDE907010992002B3DD0EB6927
:102AA800B3FA83F84FEA58180123022205AE0AAF99
:102AB8004FF006090393CDE9012356F8044B2B790F
:102AC8002278934216D02B68F3B1012B02D1F2B1D0
:102AD8000A230493204601F0D7FB034620460093BF
:102AE80001F0CAFB694602F08FFDBE42E5D10BB08A
:102AF800BDE8F083697963789942E4D1B8F1000FB1
:102B0800F3D02B68002BE0D1CDF81090E2E7637882
:102B1800022B14BF0A230823DBE74FF00108C3E7A1
:102B2800534A0368934230B505468BB055D02032DE
:102B3800934252D04F4A934204D02032934201D05C
:102B48000BB030BD4C4C4D48D4F8E03043F0010395
:102B5800C4F8E030D4F8E03003F001030593059B96
:102B6800D4F8E03043F00803C4F8E030D4F8E0309B
:102B780003F008030693069BD4F8E03043F04003C3
:102B8800C4F8E030D4F8E03003F040030793079B23
:102B9800D4F8F03043F40003C4F8F030D4F8F0303F
:102BA80003F400030893089BFFF766FFD4F8D830B6
:102BB800296843F001032F4A3048C4F8D830891AED
:102BC800D4F8D83018BF012103F001030993099BF9
:102BD8000BB0BDE83040FFF7FFBE274C2848D4F8BB
:102BE800E03043F00103C4F8E030D4F8E03003F0FB
:102BF80001030093009BD4F8E03043F01003C4F8BD
:102C0800E030D4F8E03003F010030193019BD4F8CE
:102C1800E03043F04003C4F8E030D4F8E03003F08B
:102C280040030293029BD4F8F03043F48003C4F8C5
:102C3800F030D4F8F03003F480030393039BFFF7DC
:102C48001BFFD4F8D830296843F00103084A0C4820
:102C5800C4F8D830891AD4F8D83018BF012103F045
:102C680001030493049B0BB0BDE83040FFF7B4BEEA
:102C780004580140045C0140004402580C960024AA
:102C8800B0930024014802F06DB900BF08950024F4
:102C9800014802F067B900BF80950024014802F09E
:102CA80061B900BF64970024014802F05BB900BF16
:102CB800DC9700241A4A0368934210B40BD02032E0
:102CC800934208D0174A934216D02032934213D029
:102CD8005DF8044B7047144B0022D3F85442C3F8F4
:102CE8005822002CF4D0D3F84802D3E99312234693
:102CF8005DF8044B520818470B4B0022D3F8B04438
:102D0800C3F8B424002CE3D0D3F8AC24D3F8A81427
:102D1800D3F8A404520823465DF8044B184700BFB3
:102D280004580140045C0140B0930024184A036829
:102D3800934210B40BD02032934208D0154A9342E4
:102D480017D02032934214D05DF8044B7047124BD1
:102D5800D3E994245208C3F85822002CF4D0D3E9BC
:102D68009201234601EB820100EB82005DF8044BDF
:102D78001847094BD3F8AC24D3F8B0445208C3F829
:102D8800B424002CE0D0D3F8A814D3F8A404E8E7BE
:102D980004580140045C0140B09300240000000086
:102DA8002DE9F04F0C684FF41776754F87B004FB88
:102DB80006F6012C07EB060AC0F800A000F3A08075
:102DC8000D468E464FF00008D44669A3D3E9002388
:102DD80069A1D1E90001CDE9022306ABCAF8508206
:102DE80003EB8403CDE9040153F810BC53F8083C05
:102DF800CAE992880193BEE80F00ACE80F00BEE86C
:102E08000F00ACE80F00019B9EE80300CAF828B049
:102E1800CAF8C0308CE803002B69042B0CD8DFE813
:102E280003F0737D879103004FF41773554A03FB32
:102E380004739A64C3F8E020AA692B6A002A43D075
:102E4800002B4FF4177308BF022203FB047318BF4B
:102E58000322DA6201221A63EA696B6A002A40D106
:102E6800191E4FF4177318BF012103FB0473C3E93C
:102E780031126B69022B05D8434A12F80380434A82
:102E880052F823904FF4177306F12800424649463A
:102E980003FB04740023384463646363E365C4F884
:102EA800DC30C4F8CC30C4F8F430C4E90F33C4E9DA
:102EB8001533C4E93533C4E93B33022305F034FA4A
:102EC800002849D0FFBEFEE7191E4FF4177318BF3C
:102ED800012103FB0473C3E90B12EA696B6A002A38
:102EE800BED0002B4FF4177308BF022203FB0473F4
:102EF80018BF0322C3F8C4200122C3F8C820B8E7CA
:102F0800012007B0BDE8F08F4FF417734FF4FA5261
:102F180003FB04739A64C3F8E0208DE74FF417733A
:102F28004FF47A5203FB04739A64C3F8E02083E7F2
:102F38004FF417734FF4FA4203FB04739A64C3F80F
:102F4800E02079E74FF417734BF6803203FB0473E4
:102F58009A64C3F8E0206FE706F1C00002234246F6
:102F68004946384405F0E0F90028CAD0FFBEFEE71C
:102F780004580140045C014024580140245C01408D
:102F8800B09300240077010068BD00086CBD0008FC
:102F98000068704770B5046882B015460E46C4F8DC
:102FA8005032C4E99212069AC4F85422226A012ABD
:102FB8009AB211D0294604F12800019205F070FA5E
:102FC800636A019A012B10D0294604F1C00005F06C
:102FD80067FA002002B070BD04F12800019205F0E4
:102FE800F1FA636A019A012BEED1314604F1C0006F
:102FF80005F0E8FA002002B070BD00BF03681B6945
:10300800042B05D8044A02EB830393ED000A7047AA
:103018009FED020A704700BF78BD000800803B475B
:103028000368D3F858027047F0B5002387B002222E
:1030380004460493CDE9022390F82022D0F82432E4
:103048000B2A4FEA430525D194F822220B2A02D1F4
:10305800002007B0F0BD49496B1C494851F823309E
:1030680045780178187894F8236288426AD08242B9
:1030780078D0D87803F1030C81426FD0824279D09E
:10308800987903F1060C884270D0824233D001202F
:1030980007B0F0BD394B3A4853F8253001784678E7
:1030A800187894F821C281423ED0824242D0D87822
:1030B80003F1030E814241D082424BD0987903F14B
:1030C800060E884242D08242E1D1DB796345DED1E7
:1030D800734604F508769B783046059301F0CCF8E2
:1030E800034630461E4601F0CFF801A9019030464C
:1030F80002F08AFAA8E7DB79B342C8D1634604F242
:1031080022249B782046059301F0B6F80346204612
:103118001C4601F0B9F8034601A92046019302F0C4
:1031280073FA002007B0F0BD93F801E0B645BED0B1
:103138008242BCD158786045B9D1CAE71F79B742F5
:10314800BAD1BBE75F78AF4291D192E7D979B14262
:10315800B9D19CE718796045B0D1B9E71F79AF427A
:103168008CD18DE75878B04283D1C8E7D979A94284
:103178008BD18CE71879B04282D1BFE724000024B4
:1031880020000024826F12682DE9F0415268C0B017
:10319800D0E94234591E9A1A1C1B0A401444B4FB45
:1031A800F3F103FB1144A34248D3D0F8106105465C
:1031B800D6F80031D6F80411013B5B1AD6F8041191
:1031C800DBB2A34294BFC9180919C6F80411D6F88E
:1031D8000431B3F5807F05D9D6F80431A3F580739F
:1031E800C6F80431C5F80C21D6F80021A718B7F5A0
:1031F800807F24D9C2F58078B118D2F5807223D1A6
:10320800444502D0B4EB080222D1FFB205F58C7810
:10321800C6F80071D5F81C022618B6F5807F8CBF59
:10322800C0F580772746CFB9BC4201D0E21B1BD13D
:10323800F6B2C5F81C6240B0BDE8F081FEE7B118EF
:103248002246002CE1D0A046684608F0F9FBD7E7F3
:103258000DEB0800314608F0F3FBD6E740443A4648
:10326800694608F0EDFBDFE70DEB0701F6B24046D3
:1032780008F0E6FBC5F81C6240B0BDE8F08100BF6D
:10328800204A0368934225D0A2F54C42934228D0A5
:1032980002F58062934226D002F58062934224D0E0
:1032A80002F58062934222D002F54442934220D034
:1032B800A2F51C4293421ED002F5806293421CD0B4
:1032C800114A93421BD00020DB69DB0600D470470B
:1032D800FFF758BF00224FF40F710C4801FB0200A2
:1032E800F2E70122F7E70222F5E70322F3E70422D7
:1032F800F1E70522EFE70622EDE70722EBE70822D0
:10330800E9E700BF00100140000C0058689800244D
:10331800214A0368D0F88810934228D0A2F54C427D
:10332800934226D002F58062934224D002F580624F
:10333800934222D002F58062934220D002F54442A3
:1033480093421ED0A2F51C4293421CD002F5806223
:1033580093421AD0114A934219D10822104B4FF4C4
:103368000F70002100FB023383F81411704700220C
:10337800F4E70122F2E70222F0E70322EEE7042253
:10338800ECE70522EAE70622E8E70722E6E700235A
:1033980083F81431FFDE00BF00100140000C005814
:1033A800689800249C4A036893422DE9F04104463A
:1033B8008EB000F0F380A2F54C42934200F0F0800A
:1033C80002F58062934200F0EF8002F5806293423A
:1033D80000F0E88002F58062934200F0E78002F591
:1033E8004442934200F0E480A2F51C42934200F06C
:1033F8000C8102F58062934200F00581874A93426E
:1034080040F0058108264FF40F78854F08FB06F831
:1034180007EB080595F8220200F03EFF95F8200218
:1034280000F03AFFD5F82432082B13D8DFE803F070
:1034380029374553616F7D8B05007A4BD3F8F4200B
:1034480042F00802C3F8F420D3F8F43003F008037C
:103458000893089B2846FFF7E7FD01280FD04FF493
:103468000F756D4A06FB05F57B597E19934278D096
:103478001A6842F010021A600EB0BDE8F081FFBE73
:10348800FEE7684BD3F8F02042F01002C3F8F020B2
:10349800D3F8F03003F010030093009BDAE7614B98
:1034A800D3F8E82042F40032C3F8E820D3F8E83033
:1034B80003F400330193019BCCE75A4BD3F8E8207F
:1034C80042F48022C3F8E820D3F8E83003F48023DC
:1034D8000293029BBEE7534BD3F8E82042F4002244
:1034E800C3F8E820D3F8E83003F400230393039BE0
:1034F800B0E74C4BD3F8E82042F48012C3F8E82038
:10350800D3F8E83003F480130493049BA2E7454BF7
:10351800D3F8F02042F02002C3F8F020D3F8F030BE
:1035280003F020030593059B94E73E4BD3F8E8206E
:1035380042F08042C3F8E820D3F8E83003F0804333
:103548000693069B86E7374BD3F8E82042F0004203
:10355800C3F8E820D3F8E83003F000430793079B4B
:1035680078E70023304A08F18C08C6E92533C6E914
:103578002833C6E92B332923B844C6E923234FF45B
:1035880080634046C6F89C304FF48073C6F8A83074
:1035980001F070F9844668B1FFBEFEE7002632E705
:1035A800012630E703262EE702262CE704262AE721
:1035B800052628E7C4F878800EA9D6F88C20D6F816
:1035C8002432DFF868E001EB43081368C6F8C4400A
:1035D80009AC23F008031360BEE80F000FC4DEF83F
:1035E800003062466146238038F9140C00F090FFE1
:1035F800D6F824320EAA02EB430333F9140C00F078
:10360800C5FF7B5934E70726FDE60626FBE60023BF
:1036180093F82232FFDE00BF00100140000C005872
:10362800689800240044025888000240CCBC000876
:1036380010B5264C204605F0F3F92368DA69D1065F
:1036480000D410BD224A93422FD0A2F54C42934297
:103658002DD002F5806293422BD002F5806293420E
:1036680029D002F58062934227D002F54442934262
:1036780025D0A2F51C42934223D002F580629342E2
:1036880021D0144A93420AD00020DA69D20602D423
:1036980010221A6210BDFFF775FD2368F8E70820AD
:1036A8004FF40F7202FB0040EFE70020F8E701201B
:1036B800F6E70220F4E70320F2E70420F0E705200C
:1036C800EEE70620ECE70720EAE700BF6898002449
:1036D80000100140000C005810B5274C04F50F707D
:1036E80005F09EF9D4F83C32DA69D10600D410BD51
:1036F800224A934230D0A2F54C4293422ED002F592
:10370800806293422CD002F5806293422AD002F55F
:103718008062934228D002F54442934226D0A2F513
:103728001C42934224D002F58062934222D0144A6C
:1037380093420BD00020DA69D20602D410221A6212
:1037480010BDFFF71FFDD4F83C32F7E708204FF40F
:103758000F7202FB0040EEE70020F8E70120F6E7D1
:103768000220F4E70320F2E70420F0E70520EEE763
:103778000620ECE70720EAE76898002400100140DB
:10378800000C005810B5274C04F58F6005F048F977
:10379800D4F87834DA69D10600D410BD224A9342AD
:1037A80030D0A2F54C4293422ED002F5806293426B
:1037B8002CD002F5806293422AD002F580629342AF
:1037C80028D002F54442934226D0A2F51C429342E7
:1037D80024D002F58062934222D0144A93420BD03F
:1037E8000020DA69D20602D410221A6210BDFFF74F
:1037F800C9FCD4F87834F7E708204FF40F7202FBBD
:103808000040EEE70020F8E70120F6E70220F4E7A1
:103818000320F2E70420F0E70520EEE70620ECE7B6
:103828000720EAE76898002400100140000C0058BF
:1038380010B5274C04F2B46005F0F2F8D4F8B436A9
:10384800DA69D10600D410BD224A934230D0A2F5DD
:103858004C4293422ED002F5806293422CD002F55E
:10386800806293422AD002F58062934228D002F502
:103878004442934226D0A2F51C42934224D002F53A
:103888008062934222D0144A93420BD00020DA6916
:10389800D20602D410221A6210BDFFF773FCD4F8C6
:1038A800B436F7E708204FF40F7202FB0040EEE74A
:1038B8000020F8E70120F6E70220F4E70320F2E70A
:1038C8000420F0E70520EEE70620ECE70720EAE70A
:1038D8006898002400100140000C005810B5274CCF
:1038E80004F50F6005F09CF8D4F8F038DA69D106D1
:1038F80000D410BD224A934230D0A2F54C429342E4
:103908002ED002F5806293422CD002F58062934259
:103918002AD002F58062934228D002F544429342AD
:1039280026D0A2F51C42934224D002F5806293422D
:1039380022D0144A93420BD00020DA69D20602D46E
:1039480010221A6210BDFFF71DFCD4F8F038F7E713
:1039580008204FF40F7202FB0040EEE70020F8E762
:103968000120F6E70220F4E70320F2E70420F0E75D
:103978000520EEE70620ECE70720EAE76898002430
:1039880000100140000C005810B5274C04F62C30EC
:1039980005F046F8D4F82C3BDA69D10600D410BDFE
:1039A800224A934230D0A2F54C4293422ED002F5DF
:1039B800806293422CD002F5806293422AD002F5AD
:1039C8008062934228D002F54442934226D0A2F561
:1039D8001C42934224D002F58062934222D0144ABA
:1039E80093420BD00020DA69D20602D410221A6260
:1039F80010BDFFF7C7FBD4F82C3BF7E708204FF4BE
:103A08000F7202FB0040EEE70020F8E70120F6E71E
:103A18000220F4E70320F2E70420F0E70520EEE7B0
:103A28000620ECE70720EAE7689800240010014028
:103A3800000C005810B5274C04F6685004F0F0FF4D
:103A4800D4F8683DDA69D10600D410BD224A934201
:103A580030D0A2F54C4293422ED002F580629342B8
:103A68002CD002F5806293422AD002F580629342FC
:103A780028D002F54442934226D0A2F51C42934234
:103A880024D002F58062934222D0144A93420BD08C
:103A98000020DA69D20602D410221A6210BDFFF79C
:103AA80071FBD4F8683DF7E708204FF40F7202FB6A
:103AB8000040EEE70020F8E70120F6E70220F4E7EF
:103AC8000320F2E70420F0E70520EEE70620ECE704
:103AD8000720EAE76898002400100140000C00580D
:103AE80010B5274C04F6A47004F09AFFD4F8A43F4C
:103AF800DA69D10600D410BD224A934230D0A2F52B
:103B08004C4293422ED002F5806293422CD002F5AB
:103B1800806293422AD002F58062934228D002F54F
:103B28004442934226D0A2F51C42934224D002F587
:103B38008062934222D0144A93420BD00020DA6963
:103B4800D20602D410221A6210BDFFF71BFBD4F86C
:103B5800A43FF7E708204FF40F7202FB0040EEE79E
:103B68000020F8E70120F6E70220F4E70320F2E757
:103B78000420F0E70520EEE70620ECE70720EAE757
:103B88006898002400100140000C005810B5284C1B
:103B980004F5F07004F044FFD4F8E031DA69D10696
:103BA80000D410BD234A934231D0A2F54C4293422F
:103BB8002FD002F5806293422DD002F580629342A5
:103BC8002BD002F58062934229D002F544429342F9
:103BD80027D0A2F51C42934225D002F58062934279
:103BE80023D0154A93420BD00020DA69D20602D4BA
:103BF80010221A6210BDFFF7C5FAD4F8E031F7E7D2
:103C080008224FF40F710D4801FB0200EDE7002276
:103C1800F7E70122F5E70222F3E70322F1E704229E
:103C2800EFE70522EDE70622EBE70722E9E700BF09
:103C380068A8002400100140000C0058689800246F
:103C4800014801F08FB900BFF49800242DE9F04134
:103C58004FF40F73D1F80480374E8E4603FB08F7F4
:103C68000C46B8F1080F07EB0605056005F5087C5A
:103C7800BEE80F00ACE80F009EE807008CE80700DC
:103C880003D8D5F82C32022B02D90120BDE8F081E7
:103C9800D5F82822032AF8D8D5F830120229F4D802
:103CA800D5F834C2BCF1020FEFD80131234889009E
:103CB80050F82800B851A069696121496860284610
:103CC80051F823302B611F4B53F82230EB601E4B09
:103CD80053F82C30AB600023C5E90633C5E9083337
:103CE800AB6206F085FA0028CFD10146284606F0D7
:103CF800D7FA0028C9D10146284606F01FFB00283C
:103D0800C3D1284606F0AEFA02460028BDD10F49B5
:103D18004FF48070F319C1F80421C5F80801104662
:103D2800C1F80021C5F81011A3F81421C5F81C2208
:103D3800C5F81822AAE700BF689800248CBD0008BF
:103D4800B0BD0008BCBD0008CCBD00080040003074
:103D580010B50468B4F808212046D4F8101104F00E
:103D6800A7FD20B194F8140180F0010010BD0123D3
:103D780084F8143110BD00BF036893F8140170472C
:103D8800034600201B68D3F81822C3F81C2270478A
:103D98000268D2F81C32D2F818125B1ADBB2002B78
:103DA800F7D0D2F81832D1180133DBB291F81801E4
:103DB800C2F81832704700BF0368D3F81C02D3F862
:103DC8001832C01AC0B270473D4B3E491A883E4867
:103DD800DFF824C12DE9F0473C4C3D4DCA80A1F8DD
:103DE8000320C280A4F80320EA80E280A0F8032020
:103DF8001E689B784FEA164EDFF800910B724B71E4
:103E080034490372CA800B72A1F803204B713249FE
:103E18004371CA8031480B723149DFF8E480314F71
:103E2800DFF8E0A02B7263712F4D2372C2802F4CF4
:103E38000372CA802E480B722E492E8085F802E044
:103E4800A5F80320AAF806208AF808306B71EA80E2
:103E58002B72A9F8032089F80530A9F8062089F8FB
:103E68000830A8F8032088F80530A8F8062088F854
:103E78000830268084F802E0A4F803206371E28009
:103E8800237206800E8080F802E081F802E0A0F834
:103E980003204371C2800372A1F803204B71CA80CA
:103EA8000B72ACF803208CF80530ACF806208CF8BF
:103EB8000830A7F803207B71FA803B72BDE8F087D1
:103EC80020000024C0000024E4000024CC000024CA
:103ED800B4000024D80000246C00002478000024DA
:103EE8009000002408000024A8AC002484AC00241E
:103EF8009CAC002490AC002414000024F0000024A2
:103F08009C000024A8000024704700BF08B500F0FA
:103F1800C3FABDE8084000F0C3BB00BF704700BF4C
:103F280000F0C6BA00F0CABA2DE9F041CEB0044696
:103F38004C2200210AA807F091FD2022002102A8A6
:103F480007F08CFDBC2200211EA807F087FD022087
:103F580001F066FD2368012B4FF0000354D0534A4B
:103F680002250193C820D16A514B21F00101D16289
:103F7800D26A02F0010201929A6942F440429A61BF
:103F88009B6903F440430193019B494A93699B044D
:103F9800FCD548490224002201268B6A04274FF0E9
:103FA800080823F0030323438B62052316900AA80D
:103FB80018934FF480331096179419941597CDF8E9
:103FC8006880CDE91B222122CDE91344CDE90A23DB
:103FD80002F010FA00B1FEE73F220323294602A8A7
:103FE800CDE9022300220823CDE9042340224023FF
:103FF800CDE9062340234FF48062CDE9082302F07F
:1040080027FD0346B8B1FEE7294A04250093F020AE
:104018009169264B41F440419161926902F4404212
:104028000092DA6A42F00102DA62DB6A03F0010305
:104038000093009BA9E720224FF4805125934FF469
:1040480040152B9280222D931EA8309326913591EE
:104058004FF48071249234920C223394439140F2AD
:10406800271120921022CDF884802A971F96CDE937
:104078002E34CDE93B334FF48033CDE922463193DA
:10408800002446930623CDE93E4527934FF48063E9
:10409800094C2C931E94CDE9281202F035FF00B18B
:1040A800FEE701F0E3FC4EB0BDE8F08100040058E3
:1040B80000480258004402580F130F032DE9F0413D
:1040C80004460D4684B001264FF480774FF000086F
:1040D800D1E9000184E8030000F0AEF92046FFF7BB
:1040E80023FF00F08BFA4FF040536846ADF80060AC
:1040F8000193364B0397029300F09EFA4FF040432A
:10410800192268468DF80F6001938DF80820ADF8E4
:104118000D708DF801608DF80A8000F08DFA04208A
:1041280000F07AFA06F04AFB06F002FA2B791BBB7C
:104138006B799BB1BFF34F8FBFF36F8F244B002276
:10414800C3F85022BFF34F8FBFF36F8F5A6942F401
:1041580000325A61BFF34F8FBFF36F8F00220023E5
:1041680069461C48CDE9002306F0BCFA194806F058
:104178001BFB04B0BDE8F081154CC4F88480BFF384
:104188004F8FD4F8803043F6E071C3F3C906C3F308
:104198004E334FEA431C0CEA0100334640EA83726F
:1041A800013BC4F860225A1CF8D1ACF1200C1CF178
:1041B800200FF0D1BFF34F8F636943F480336361FD
:1041C800BFF34F8FBFF36F8FB2E700BF0E0001033D
:1041D80000ED00E0B4AC002403480023034A04497E
:1041E800036006F009BF00BFB4AC0024000000243F
:1041F800113F000810B41A4C00221A4BD4F888104A
:10420800194841F47001C4F888101968174C41F036
:10421800010119601A6119680840154918609A6106
:10422800DA611A629A62DA621A635A639A63DA6323
:104238001A645A64186820F4802018601A66236883
:104248001940B1F1005F03D20A4B0122C3F80821DB
:10425800034B4FF000625DF8044B9A60704700BF53
:1042680000ED00E0004402587FEDF6EA0010005C23
:104278000000FFFF00800051024B027853F8220033
:10428800704700BF08BE0008024B427833F812009E
:10429800704700BFE8BD00088CB00A2814D8DFE8D2
:1042A80000F01523313F4D5B6977859306004D4B30
:1042B800D3F8E02042F48062C3F8E020D3F8E0307D
:1042C80003F480630B930B9B0CB07047454BD3F8FA
:1042D800E02042F00102C3F8E020D3F8E03003F018
:1042E80001030193019BEFE73E4BD3F8E02042F036
:1042F8000202C3F8E020D3F8E03003F0020302938F
:10430800029BE1E7374BD3F8E02042F00402C3F800
:10431800E020D3F8E03003F004030393039BD3E7D2
:10432800304BD3F8E02042F00802C3F8E020D3F87D
:10433800E03003F008030493049BC5E7294BD3F846
:10434800E02042F01002C3F8E020D3F8E03003F098
:1043580010030593059BB7E7224BD3F8E02042F002
:104368002002C3F8E020D3F8E03003F020030693DE
:10437800069BA9E71B4BD3F8E02042F04002C3F8A4
:10438800E020D3F8E03003F040030793079B9BE756
:10439800144BD3F8E02042F08002C3F8E020D3F8B1
:1043A800E03003F080030893089B8DE70D4BD3F8AA
:1043B800E02042F48072C3F8E020D3F8E03003F440
:1043C80080730993099B7FE7064BD3F8E02042F4FA
:1043D8000072C3F8E020D3F8E03003F400730A93C6
:1043E8000A9B71E700440258704700BF0F4B1B78C7
:1043F8000BB90120704710B504464FF47A700C4A87
:10440800B0FBF3F31068B0FBF3F000F0E1F80F2C09
:1044180000D808B1012010BD002221464FF0FF301E
:1044280000F076F8034B00201C6010BD0401002446
:10443800FC0000240801002438B50320124D00F0C8
:1044480055F8124C02F064FA114A12499369C3F301
:104458000323CB5C03F01F0320FA03F30F202B6028
:10446800926902F00F028A5C02F01F02D3402360B7
:10447800FFF7BCFF10B10124204638BD0446FFF702
:10448800B3FF204638BD00BFFC0000240001002413
:1044980000440258D8BD0008034A044B11681B7831
:1044A8000B441360704700BFB8AC0024040100241B
:1044B800014B1868704700BFB8AC002438B50446F3
:1044C800FFF7F6FF0546631C02D0044B1B781C441B
:1044D800FFF7EEFF431BA342FAD338BD04010024C3
:1044E800014B1868000C70470010005C06494FF635
:1044F800FF0C0002054BCA6800F4E06002EA0C02F7
:1045080010430343CB60704700ED00E00000FA055C
:104518001B4BDB68C3F3022300B5C3F1070E03F19D
:10452800040CBEF1040F28BF4FF0040EBCF1060FB7
:104538001AD9033B4FF0FF3C0CFA03FC22EA0C02A9
:104548004FF0FF3C00280CFA0EFC21EA0C0101FA9E
:1045580003F141EA02010ADB09010A4BC9B203442B
:1045680083F800135DF804FB00221346E8E700F027
:104578000F000901044BC9B2034419765DF804FB26
:1045880000ED00E000E100E0FCEC00E0002807DBC3
:1045980000F01F0101234009024A8B4042F82030F5
:1045A800704700BF00E100E000280DDB430901224D
:1045B80000F01F000549203302FA00F041F82300FB
:1045C800BFF34F8FBFF36F8F704700BF00E100E06C
:1045D800431EB3F1807F0CD24FF0E0220020064941
:1045E8004FF0F00C5361072381F823C090611361E9
:1045F80070470120704700BF00ED00E0BFF35F8FF8
:10460800044B00215A6A22F480325A62C3F894108B
:10461800704700BF00ED00E0064B40F00100C3F812
:1046280094005A6A42F480325A62BFF34F8FBFF344
:104638006F8F704700ED00E0174A4378C2F8983052
:10464800017821B3436800B5C2F89C30C37A90F86A
:104658000CC01B0690F80FE043EA0C7390F80AC0F0
:104668000B43817B43EACC4390F80DC043EA8C436B
:1046780090F809C043EA4143017A43EA0E4343EA0A
:104688000C2343EA4103C2F8A0305DF804FBC2F8EA
:104698009C10C2F8A010704700ED00E0704700BF02
:1046A80008B5FFF7FBFF08BD0268344B344930B446
:1046B800344D354CAA4218BF9A420CBF012300233F
:1046C8008A4208BF43F001033031A24208BF43F0D9
:1046D800010330348A4208BF43F001033031A2425B
:1046E80008BF43F0010330348A4208BF43F0010396
:1046F80001F55C71A24208BF43F0010304F55C7444
:104708008A4208BF43F001033031A24208BF43F098
:10471800010330348A4208BF43F001033031A2421A
:1047280008BF43F0010330348A4208BF43F0010355
:104738003031A24208BF43F001038A4208BF43F068
:10474800010313B9114B9A4213D1D3B21049114C3A
:10475800103BA1FB03515F2B0F4BC1F3021103EA7E
:104768000203615C88BF0433C1658365184630BCA9
:10477800704722F0FF038365F8E700BF100002408E
:10478800400002402800024058000240B80402409D
:10479800ABAAAAAA38BE000800FCFFFF0368294A92
:1047A800294930B4294D2A4CAB4218BF93420CBF5B
:1047B800012200228B4208BF42F001022831A342A5
:1047C80008BF42F0010228348B4208BF42F00102C0
:1047D8002831A34208BF42F001028B4208BF42F0D1
:1047E800010212B91B4A934213D1DBB21A4C1B4A7D
:1047F8000121083B1A4DA4FB0343456602EB131243
:10480800C3F30413920001FA03F30266836630BC13
:104818007047DAB21349144C1944103AA829A4FB7A
:1048280002234FEA131300D80833104A03F01F0578
:1048380001210F4C1A44A940446692008166026621
:10484800E5E700BF08540258305402581C54025877
:104858004454025894540258CDCCCCCC009600163F
:1048680080580258F0FBFDBFABAAAAAA008200102C
:104878008008024070B50446FFF71AFE002C00F0CD
:10488800C68023680546954A934248D01832934219
:1048980045D0303292498B4218BF934201F1300122
:1048A8000CBF012200228B4208BF42F001021831DE
:1048B8008B4208BF42F0010218318B4208BF42F018
:1048C800010218318B4208BF42F0010201F556710E
:1048D8008B4208BF42F0010218318B4208BF42F0F8
:1048E800010218318B4208BF42F0010218318B4295
:1048F80008BF42F0010218318B4208BF42F00102A2
:1049080018318B4208BF42F0010218318B4208BFB0
:1049180042F001021AB9734A934240F0F58002222C
:10492800002184F8352084F834101A6822F0010236
:104938001A6005E0FFF7BCFD431B052B40D8236830
:104948001A68D107F6D4D4E9022521692A43A06957
:104958001D680A4361690A43E16902430A436249DF
:104968002940256A2A430A43616A04292FD01A601C
:104978005A6922F00702114359612046FFF794FE55
:10498800E26D3F2302F01F02934083602046FFF749
:1049980005FFA368802B3CD06368A06EDAB2013BA8
:1049A800D4E91851072B2A60486026D90023C4E9A6
:1049B8001B33636700200123606584F8353070BDC0
:1049C800202203230120626584F8353070BDD4E9C4
:1049D8000B5129430A431A605969A26A21F0070159
:1049E800114341F00401002DC6D000284FD1012AFF
:1049F8006ED032F00202BFD151E0501E072810D904
:104A0800626FD4E91B31002018604A60D2E70120A8
:104A180070BD0023A16ED4E9180263600360516081
:104A2800C4E72168314B324DA94218BF994205F1BC
:104A380014050CBF01230023A94208BF43F001035A
:104A48001435A94208BF43F001031435A94208BF31
:104A580043F001031435A94208BF43F0010314359C
:104A6800A94208BF43F001033BB9224B994204D045
:104A7800214B224913449B0003E0214B2149134455
:104A88009B0001228240C4E91B316267BBE7B0F595
:104A9800005F0ED0022A05D9032A7FF46DAFEA0120
:104AA8007FF56AAF012340221846626584F83530E5
:104AB80070BD032A3FF660AF01A050F822F000BF96
:104AC800AD4A0008A74A0008AD4A0008D94A0008BC
:104AD800B5F1C07F7FF450AFE4E700BF100002409B
:104AE80040000240B80402403F8010FE08540258BB
:104AF8001C540258945402583F8200104009024046
:104B08003F96001640590258324A33483349834287
:104B180018BF934200F128000CBF012200228B42EB
:104B280008BF42F001022831834208BF42F0010267
:104B380028308B4208BF42F001022831834208BF67
:104B480042F001028B4208BF42F0010212B9244A26
:104B5800934238D102220021224D84F8341084F87F
:104B680035201A681540A268402A2AD0802A0CBF2E
:104B78004FF480400846266AD4E90312D20842EA74
:104B8800D102616942EAD102A16942EAD102E1692E
:104B980042EAD102144942EA161219442A4302434E
:104BA8001248A0FB010120461A600B099B00E3652F
:104BB800FFF77AFDE26D012302F01F029340436084
:104BC800E4E61020D7E7402203230120626584F839
:104BD800353070BD085402581C54025830540258DD
:104BE800945402580F00FEFFF8ABFDA7CDCCCCCCF7
:104BF800002800F0BC80844690F83400012800F0BA
:104C0800B88001202DE9F0419CF835408CF834003B
:104C1800844208D000224FF400638CF83420CCF88A
:104C28005430BDE8F0810220DCF800507A4C8CF852
:104C380035000020794ECCF854007948854218BFD9
:104C4800A54200F118000CBF01240024854208BFCA
:104C580044F001041830854208BF44F001041830BC
:104C6800854208BF44F001041830854208BF44F06B
:104C7800010400F55670854208BF44F0010418305D
:104C8800854208BF44F001041830854208BF44F04B
:104C980001041830854208BF44F0010418308542E9
:104CA80008BF44F001041830854208BF44F00104ED
:104CB8001830854208BF44F001041830854208BF07
:104CC80044F00104A0F59560B54218BF8542DCF8B0
:104CD8006C600CBF0120002054EA0008286820F00E
:104CE80001002860DCF86400DCF86840DCF85870E3
:104CF800446040D016B1DCE91C044460DCF85C0078
:104D08004FF03F0E00F01F000EFA00F0B860286860
:104D180020F4802028606B60DCF80830402B23D01A
:104D2800A960EA602B6823F01E0343F016032B608A
:104D3800DCF840301BB12B6843F008032B60DCF82B
:104D480060301A68D20303D51A6842F480721A6078
:104D58001EB1336843F4807333602B68002043F03E
:104D680001032B60BDE8F081AA60E960DAE7012061
:104D780070470220704716B1DCE91C0444602948DA
:104D8800DFF8A8E0754518BF85420EF1140E0CBF78
:104D980001200020754508BF40F001000EF1140EF7
:104DA800754508BF40F001000EF1140E754508BFA7
:104DB80040F001000EF1140E754508BF40F00100E7
:104DC8000EF1140E754508BF40F0010010B91648E1
:104DD80085420ED1DCF85C0000F01F0E012000FABD
:104DE8000EF078606B60DCF80830402B10D0A960BA
:104DF800EA602B6823F00E0343F00A032B60DCF80B
:104E08004030002B9BD02B6843F004032B6096E7BF
:104E1800AA60E960EDE700BF4000024028000240B8
:104E28005800024008540258945402581C5402581E
:104E380000285FD038B590F835200346022A55D1AE
:104E48000168444A914248D01832914245D03032E4
:104E5800414C4248A14218BF914204F148040CBF9A
:104E680001220022814208BF42F001023030A142F3
:104E780008BF42F001023034814208BF42F001020B
:104E880000F55C70A14208BF42F0010204F55C74B1
:104E9800814208BF42F001023030A14208BF42F00F
:104EA80001023034814208BF42F001023030A14291
:104EB80008BF42F001023034814208BF42F00102CB
:104EC8003030A14208BF42F00102814208BF42F0DF
:104ED800010212B9224A91420ED10422002083F81D
:104EE80035200B6823F001030B6038BD80220120B8
:104EF8005A6538BD012070470A681C6E22F00E0200
:104F0800D86D9D6D0A6000F01F000A6822F001024A
:104F18000A6001222168824021F4807121606A6060
:104F2800DA6ED3E91910486032B11168D3E91C046C
:104F380021F4807111604460002401211A6D83F806
:104F4800344083F835101AB118469047204638BDCA
:104F5800104638BD10000240400002407000024078
:104F6800B80402402DE9F04300229C4B83B09C4ECC
:104F78001D688146019203689A4A846D934218BF5E
:104F8800B342276808BF0126216818BF002645D00C
:104F980018329548834218BF934200F118000CBF9D
:104FA80001220022834208BF42F0010218308342E6
:104FB80008BF42F001021830834208BF42F00102E4
:104FC8001830834208BF42F0010200F55670834250
:104FD80008BF42F001021830834208BF42F00102C4
:104FE8001830834208BF42F001021830834208BFDC
:104FF80042F001021830834208BF42F00102183023
:10500800834208BF42F001021830834208BF42F0D1
:1050180001021AB9754A934240F05082D9F85C10DF
:10502800082201F01F0C02FA0CF2174240F08881A6
:1050380027FA0CF2D2070CD55A69100609D50122B5
:1050480002FA0CF2A260D9F8542042F00202C9F820
:1050580054204FF0040E0EFA0CF038425BD0002EAC
:105068004FD1634ADFF88081434518BF934208F166
:1050780018080CBF01220022434508BF42F0010274
:1050880008F11808434508BF42F0010208F1180862
:10509800434508BF42F0010208F11808434508BF1C
:1050A80042F0010208F55678434508BF42F0010274
:1050B80008F11808434508BF42F0010208F1180832
:1050C800434508BF42F0010208F11808434508BFEC
:1050D80042F0010208F11808434508BF42F00102F6
:1050E80008F11808434508BF42F0010208F1180802
:1050F800434508BF42F001021AB93C4A934240F0C6
:1051080019821A68920706D5A060D9F8542042F08F
:105118000402C9F85420102202FA0CFC1CEA070FFA
:105128006CD0002E45D1324A2F4EB34218BF93425D
:1051380006F118060CBF01220022B34208BF42F054
:1051480001021836B34208BF42F001021836B342D2
:1051580008BF42F001021836B34208BF42F001020C
:1051680006F55676B34208BF42F001021836B3423C
:1051780008BF42F001021836B34208BF42F00102EC
:105188001836B34208BF42F001021836B34208BFCE
:1051980042F001021836B34208BF42F00102183645
:1051A800B34208BF42F001021AB9104A934240F0D4
:1051B800C9811A68100721D5C4F808C01A685603AF
:1051C80000F14C811A68D20503D41A6822F008024B
:1051D8001A60D9F840308BB10CE000BFFC00002405
:1051E800100002402800024058000240B804024063
:1051F8004000024048469847D9F85C1001F01F016A
:1052080020268E403E4268D0D9F80020A54BA64FF4
:10521800BA4218BF9A4207F118070CBF01230023AE
:10522800BA4208BF43F001031837BA4208BF43F037
:1052380001031837BA4208BF43F001031837BA42CE
:1052480008BF43F001031837BA4208BF43F001030F
:105258001837BA4208BF43F0010307F55677BA4238
:1052680008BF43F001031837BA4208BF43F00103EF
:105278001837BA4208BF43F001031837BA4208BFCB
:1052880043F001031837BA4208BF43F00103183747
:10529800BA4208BF43F001031837BA4208BF43F0C7
:1052A80001031BB9814B9A4240F062811368DB0607
:1052B80013D5A66099F83530042B136800F0AE803A
:1052C80013F4802F136800F0D3801C0340F1DE80B4
:1052D800D9F83C300BB148469847D9F85430002BE0
:1052E80000F0B980D9F85430D8071FD5D9F8002074
:1052F800042189F83510136823F0010313606C4BFF
:10530800A3FB0535AD0A02E01368D90704D5019B54
:105318000133AB420193F7D9002389F8343013687D
:10532800DB074CBF0323012389F83530D9F84C300B
:10533800002B00F09080484603B0BDE8F0431847C2
:10534800186840070AD5186820F004001860A260A1
:10535800D9F8542042F00102C9F8542027FA0CF277
:10536800D2077FF576AE534A5348834218BF93421B
:1053780000F130000CBF01220022834208BF42F036
:1053880001021830834208BF42F0010218308342FC
:1053980008BF42F001021830834208BF42F0010200
:1053A80000F55670834208BF42F00102183083426C
:1053B80008BF42F001021830834208BF42F00102E0
:1053C8001830834208BF42F001021830834208BFF8
:1053D80042F001021830834208BF42F0010218303F
:1053E800834208BF42F001021830834208BF42F0EE
:1053F8000102002A7FF420AE002E7FF41DAE1A6849
:10540800042202FA0CF23A4240F09480102202FA86
:105418000CFC17EA0C0F3FF4F1AE84E623F01603F8
:105428001360536923F080035361D9F840309BB36C
:10543800136823F0080313603F230025012203FAB1
:1054480001F1D9F85030A16089F8345089F8352035
:10545800002B7FF470AF03B0BDE8F0831B6818031E
:105468007FF5B7AED9F84830002B7FF4C3AEC5E658
:1054780013F480737FF42CAF116821F010011160D0
:10548800012289F8343089F8352021E7D9F84430E9
:10549800002B7FF420AF20E7D9F84830002BC7D184
:1054A800CAE700BF1000024028000240B8040240CA
:1054B800B5814E1B58000240400002404E4A4F4DF5
:1054C800AB4218BF934205F114050CBF012200221C
:1054D800AB4208BF42F001021435AB4208BF42F0AC
:1054E80001021435AB4208BF42F001021435AB4249
:1054F80008BF42F001021435AB4208BF42F0010276
:1055080012B93F4A9342A6D1D9F85C5004261A68CA
:1055180005F01F05AE400E4219D0570717D51004E5
:1055280066604BD5D1034FD4D9F84830002B7FF4AF
:1055380002AF90E71A68102202FA0CFC17EA0C0F67
:105548003FF45CAE1A6852077FF558AE34E602267F
:10555800AE400E4211D097070FD56660140439D5B6
:10556800D00343D4D9F84430002B7FF4E4AE72E77B
:1055780013689F077FF5B1AE9BE60826AE400E4242
:105588003FF469AF11077FF566AF1A68002122F072
:105598000E021A600123D9F84C2003FA05F565605C
:1055A800C9F8543089F8341089F83530002A3FF4A6
:1055B80052AF484603B0BDE8F0431047920603D403
:1055C8001A6822F004021A60D9F84030002B7FF4E0
:1055D800B2AE40E712F0200208D11968012421F088
:1055E8000A01196089F8342089F83540D9F83C3027
:1055F800002B7FF4A0AE2EE7085402581C54025822
:1056080094540258406D70472DE9F04F0D6883B0EF
:10561800002D00F0D5800023DFF8688201229A402F
:1056280012EA050C00F0C7804E6826F01009B9F19F
:10563800020F40F0C88003F007044FEAD30E4FF082
:105648000F0A4FEA840900EB8E0E0AFA09FADEF80F
:10565800204024EA0A0A0C6904FA09F406F003094E
:1056680044EA0A04CEF820404FEA430E0324D0F857
:1056780000A009FA0EF904FA0EF42AEA040AE4432F
:1056880049EA0A09C0F80090D0F808A0CF6804EAEF
:105698000A0A07FA0EF949EA0A09C0F80890C6F397
:1056A8000019D0F804A009FA03F92AEA020249EA23
:1056B80002024260C268F70004EA02048A6802FA39
:1056C8000EF242EA0402C26075D5644C23F0030E60
:1056D80003F00309D4F8F420C6444FEA890942F0DC
:1056E8000202C4F8F420D4F8F42002F00202019275
:1056F800019A0F22DEF8084002FA09F224EA0202AF
:10570800574CA04225D004F58064A0427BD0554C6C
:10571800A0427ED0544CA0426FD0544CA04200F01E
:105728008480534CA04200F08680524CA04276D030
:10573800514CA04200F08580504CA04200F0878078
:105748004F4CA0420CBF09240A2404FA09F942EA82
:105758000902CEF808204FF0B0426FEA0C0EF403AD
:10576800D2F880204FF0B04454BF0EEA02024CEA4F
:105778000202C4F88020B203D4F884404FF0B0424B
:1057880054BF0EEA04044CEA0404F702C2F8844049
:1057980014684FF0B04254BF0EEA04044CEA040403
:1057A8001460B40252684FF0B04454BF0EEA0202CB
:1057B8004CEA02026260013335FA03F27FF42EAF3D
:1057C80003B0BDE8F08F4FEA430E0324D0F800B0D1
:1057D80006F0030A04FA0EF409F1FF390AFA0EFA80
:1057E8002BEA040BB9F1010F6FEA04044AEA0B0A29
:1057F800C0F800A03FF65EAF46E7032404FA09F9B3
:1058080042EA0902A5E7012404FA09F942EA090271
:105818009FE7022404FA09F942EA090299E70624F3
:1058280004FA09F942EA090293E7042404FA09F997
:1058380042EA09028DE7052404FA09F942EA090255
:1058480087E7072404FA09F942EA090281E70824EC
:1058580004FA09F942EA09027BE700BF004402584A
:105868000000025800080258000C025800100258A4
:105878000014025800180258001C02580020025850
:105888000024025800040058002900F0A8800023D2
:105898002DE9F04FDFF8689183B0DFF86881DFF811
:1058A80068A1DFF868B14FF0010E0EFA03F212EAB0
:1058B800010C6FD023F0030503F003040F264045C5
:1058C8004D444FEAC404AF6806FA04F607EA06072F
:1058D800019721D0504566D0584567D0434FB8420C
:1058E8006ED0434FB84270D0424FB84263D0424F57
:1058F800B84256D0414FB84272D0DFF814E1704533
:1059080068D0DFF810E1704514BF4FF00A0E4FF071
:10591800090E0EFA04F400E00024019FA74219D1F1
:10592800AC6824EA06064FF0B044AE60D4F8805064
:1059380025EA0C05C4F88050D4F8845025EA0C05F3
:10594800C4F88450256825EA0C052560656825EAB1
:105958000C05656003255C0003F007070F2605FAB0
:1059680004F40568BF00254306FA07F70560DD085B
:1059780000EB85052E6A26EA07062E62856825EA69
:1059880004058560456825EA02024260C26822EA89
:105998000404C460013331FA03F284D103B0BDE8D2
:1059A800F08F4FF0060E0EFA04F4B6E74FF0020E31
:1059B8000EFA04F4B1E74FF0050E0EFA04F4ACE762
:1059C8004FF0030E0EFA04F4A7E74FF0040E0EFA98
:1059D80004F4A2E74FF0080E0EFA04F49DE77047AE
:1059E8004FF0070E0EFA04F497E700BF000C0258B8
:1059F800001002580014025800180258001C0258DF
:105A08000004005800000258000402580008025818
:105A1800002002580024025802B909048161704725
:105A280038B5114BDA68520704D4DB6803F0070372
:105A3800834214D10C4CE36823F007031843E06059
:105A4800FEF736FD054605E0FEF732FD401BB0F5D2
:105A58007A7F06D863689B04F6D5002038BD0120FC
:105A680038BD032038BD00BF00480258024AD36839
:105A780043F08073D36070470048025870B44D6A91
:105A880015B1B2F1406F3AD18B691BB30C6A002C87
:105A98004CD08E680068C661CE69002E69D02B4351
:105AA80013432343CC6A334323430C6B23434C6B8C
:105AB80023430C692343CC6823430C6823434C6974
:105AC800B2F1406F43EA8443436165D04B6870BCD0
